{
  "_format": "hh-sol-artifact-1",
  "contractName": "Votos",
  "sourceName": "contracts/Votos.sol",
  "abi": [
    {
      "inputs": [],
      "stateMutability": "nonpayable",
      "type": "constructor"
    },
    {
      "inputs": [
        {
          "internalType": "string",
          "name": "_name",
          "type": "string"
        }
      ],
      "name": "addProposal",
      "outputs": [],
      "stateMutability": "nonpayable",
      "type": "function"
    },
    {
      "inputs": [
        {
          "internalType": "address",
          "name": "_address",
          "type": "address"
        }
      ],
      "name": "addToWhitelist",
      "outputs": [],
      "stateMutability": "nonpayable",
      "type": "function"
    },
    {
      "inputs": [
        {
          "internalType": "address",
          "name": "",
          "type": "address"
        }
      ],
      "name": "hasVoted",
      "outputs": [
        {
          "internalType": "bool",
          "name": "",
          "type": "bool"
        }
      ],
      "stateMutability": "view",
      "type": "function"
    },
    {
      "inputs": [],
      "name": "owner",
      "outputs": [
        {
          "internalType": "address",
          "name": "",
          "type": "address"
        }
      ],
      "stateMutability": "view",
      "type": "function"
    },
    {
      "inputs": [
        {
          "internalType": "string",
          "name": "",
          "type": "string"
        }
      ],
      "name": "proposals",
      "outputs": [
        {
          "internalType": "uint256",
          "name": "",
          "type": "uint256"
        }
      ],
      "stateMutability": "view",
      "type": "function"
    },
    {
      "inputs": [
        {
          "internalType": "string",
          "name": "_proposal",
          "type": "string"
        }
      ],
      "name": "vote",
      "outputs": [],
      "stateMutability": "nonpayable",
      "type": "function"
    },
    {
      "inputs": [
        {
          "internalType": "address",
          "name": "",
          "type": "address"
        }
      ],
      "name": "whitelist",
      "outputs": [
        {
          "internalType": "bool",
          "name": "",
          "type": "bool"
        }
      ],
      "stateMutability": "view",
      "type": "function"
    }
  ],
  "bytecode": "0x608060405234801561001057600080fd5b50336000806101000a81548173ffffffffffffffffffffffffffffffffffffffff021916908373ffffffffffffffffffffffffffffffffffffffff1602179055506109f2806100606000396000f3fe608060405234801561001057600080fd5b506004361061007d5760003560e01c80639b19251a1161005b5780639b19251a146100ec578063e43252d71461011c578063fc36e15b14610138578063ffa0d2a4146101545761007d565b806309eef43e146100825780632fdae3c5146100b25780638da5cb5b146100ce575b600080fd5b61009c60048036038101906100979190610598565b610184565b6040516100a991906105e0565b60405180910390f35b6100cc60048036038101906100c79190610741565b6101a4565b005b6100d6610259565b6040516100e39190610799565b60405180910390f35b61010660048036038101906101019190610598565b61027d565b60405161011391906105e0565b60405180910390f35b61013660048036038101906101319190610598565b61029d565b005b610152600480360381019061014d9190610741565b610386565b005b61016e60048036038101906101699190610741565b6104f8565b60405161017b91906107cd565b60405180910390f35b60036020528060005260406000206000915054906101000a900460ff1681565b60008054906101000a900473ffffffffffffffffffffffffffffffffffffffff1673ffffffffffffffffffffffffffffffffffffffff163373ffffffffffffffffffffffffffffffffffffffff1614610232576040517f08c379a000000000000000000000000000000000000000000000000000000000815260040161022990610845565b60405180910390fd5b600060018260405161024491906108d6565b90815260200160405180910390208190555050565b60008054906101000a900473ffffffffffffffffffffffffffffffffffffffff1681565b60026020528060005260406000206000915054906101000a900460ff1681565b60008054906101000a900473ffffffffffffffffffffffffffffffffffffffff1673ffffffffffffffffffffffffffffffffffffffff163373ffffffffffffffffffffffffffffffffffffffff161461032b576040517f08c379a000000000000000000000000000000000000000000000000000000000815260040161032290610845565b60405180910390fd5b6001600260008373ffffffffffffffffffffffffffffffffffffffff1673ffffffffffffffffffffffffffffffffffffffff16815260200190815260200160002060006101000a81548160ff02191690831515021790555050565b600260003373ffffffffffffffffffffffffffffffffffffffff1673ffffffffffffffffffffffffffffffffffffffff16815260200190815260200160002060009054906101000a900460ff1680156104295750600360003373ffffffffffffffffffffffffffffffffffffffff1673ffffffffffffffffffffffffffffffffffffffff16815260200190815260200160002060009054906101000a900460ff16155b610468576040517f08c379a000000000000000000000000000000000000000000000000000000000815260040161045f90610939565b60405180910390fd5b6001808260405161047991906108d6565b908152602001604051809103902060008282546104969190610988565b925050819055506001600360003373ffffffffffffffffffffffffffffffffffffffff1673ffffffffffffffffffffffffffffffffffffffff16815260200190815260200160002060006101000a81548160ff02191690831515021790555050565b6001818051602081018201805184825260208301602085012081835280955050505050506000915090505481565b6000604051905090565b600080fd5b600080fd5b600073ffffffffffffffffffffffffffffffffffffffff82169050919050565b60006105658261053a565b9050919050565b6105758161055a565b811461058057600080fd5b50565b6000813590506105928161056c565b92915050565b6000602082840312156105ae576105ad610530565b5b60006105bc84828501610583565b91505092915050565b60008115159050919050565b6105da816105c5565b82525050565b60006020820190506105f560008301846105d1565b92915050565b600080fd5b600080fd5b6000601f19601f8301169050919050565b7f4e487b7100000000000000000000000000000000000000000000000000000000600052604160045260246000fd5b61064e82610605565b810181811067ffffffffffffffff8211171561066d5761066c610616565b5b80604052505050565b6000610680610526565b905061068c8282610645565b919050565b600067ffffffffffffffff8211156106ac576106ab610616565b5b6106b582610605565b9050602081019050919050565b82818337600083830152505050565b60006106e46106df84610691565b610676565b905082815260208101848484011115610700576106ff610600565b5b61070b8482856106c2565b509392505050565b600082601f830112610728576107276105fb565b5b81356107388482602086016106d1565b91505092915050565b60006020828403121561075757610756610530565b5b600082013567ffffffffffffffff81111561077557610774610535565b5b61078184828501610713565b91505092915050565b6107938161055a565b82525050565b60006020820190506107ae600083018461078a565b92915050565b6000819050919050565b6107c7816107b4565b82525050565b60006020820190506107e260008301846107be565b92915050565b600082825260208201905092915050565b7f536f6c6f2064656c2070726f7069746172696f00000000000000000000000000600082015250565b600061082f6013836107e8565b915061083a826107f9565b602082019050919050565b6000602082019050818103600083015261085e81610822565b9050919050565b600081519050919050565b600081905092915050565b60005b8381101561089957808201518184015260208101905061087e565b60008484015250505050565b60006108b082610865565b6108ba8185610870565b93506108ca81856020860161087b565b80840191505092915050565b60006108e282846108a5565b915081905092915050565b7f4e6f207469656e6573207065726d69736f207061726120766f74617200000000600082015250565b6000610923601c836107e8565b915061092e826108ed565b602082019050919050565b6000602082019050818103600083015261095281610916565b9050919050565b7f4e487b7100000000000000000000000000000000000000000000000000000000600052601160045260246000fd5b6000610993826107b4565b915061099e836107b4565b92508282019050808211156109b6576109b5610959565b5b9291505056fea26469706673582212206dbb22d58789110d36b0c9f6eb34fefd9bc0656bc98abdbd134c19441cf5836564736f6c63430008130033",
  "linkReferences": {},
  "deployedLinkReferences": {}
}